:0800030012080912084180FEF9
:070866005390C343901422DC
:07086D005390C343902822C1
:070874005390C343901822CA
:07087B005390C343902422B7
:070882005390C343901022C4
:070889005390C343900422C9
:040895005390C32297
:1007CC00751AC3751B50E51B151BAE1A7002151A52
:0E07DC004E600B7FE87E03120823B2A380E874
:0107EA0022EC
:10082300D3EF9400EE94004007EF1F70F31E80F0A7
:0108330022A2
:1007EB00D3EF9400EE940040147D6E7C00ED1D70F1
:0D07FB00011CED4C70F7EF1F70E61E80E34F
:0108080022CD
:08084C007FB47E49DEFEDFFCF3
:010854002281
:080855007F5A7EA3DEFEDFFCEA
:01085D002278
:040890007F02DFFE06
:010894002241
:0C0834000A08029F250D9949411F010888
:08085E0074082FF8E6F5802272
:10000E005389F0438901C28D758CB8E4F58AD2A963
:05001E00D2AFC2B922BF
:03000B000206FDED
:1006FD00C0E0C0F0C083C082C0D075D000C000C0C3
:10070D0001C002C003C004C005C006C007758CDB64
:10071D00758AE230B60630B70312086620B6063089
:10072D00B70312087430B60620B70312087B20B643
:10073D000620B703120895D007D006D005D004D0F7
:10074D0003D002D001D000D0D0D082D083D0F0D051
:02075D00E03288
:1008090075985053890F438920758BFD758DFDC2ED
:0A081900ABD28ED2AFD2ACD2BC221B
:0300230002045F75
:10045F00C0E0C0F0C083C082C0D075D000C000C063
:10046F0001C002C003C004C005C006C00785991DA6
:10047F00851D993099FDC299C298E51D64306017AA
:10048F00E51D64316011E51D6439600BE51D6433B2
:10049F006005E51DB43703851D1CE51C64307036FF
:1004AF00FFFE12085EC28CE51D24CE601524FE608F
:1004BF001B24FE601C24FE600E240370541208954A
:1004CF00804F120866804A12086D804512087480AA
:1004DF004012087B803BE51CB4310512053B80318F
:1004EF00E51CB4390E1208957F097E0012085EC212
:1004FF008C801EE51CB4330AC28C12089512075F5C
:10050F00800FE51CB4370A7F077E0012085E1207C2
:10051F009AD007D006D005D004D003D002D001D096
:0C052F0000D0D0D082D083D0F0D0E032D9
:10079A00E51C6437702B30B40830B5051208668042
:1007AA00EF12085520B40630B50312087B30B406A0
:1007BA0020B50312087420B4D720B5D412087B8060
:0207CA00CF223C
:10075F007F037E0012085EE51C6433702D30B606F1
:10076F0030B70312086620B60630B703120874308C
:10077F00B60620B70312087B20B60620B70312086F
:0B078F00957F147E001207EB80CD2246
:10053B00E51C643160030205F712068A8F158E14D1
:10054B008D138C1212037B7C007D0A1203FCAE040C
:10055B00AF0512085EE4FFFE7D407C41AB15AA148B
:10056B00A913A8121202C44018E4FFFE7D607C415F
:10057B00AB15AA14A913A8121202C4600250028070
:10058B0016E4FFFE7DC87C41AB15AA14A913A81273
:10059B001202C4600740051208958046E4FFFE7DF9
:1005AB00607C41AB15AA14A913A8121202C4601BDC
:1005BB004019E4FFFE7DC87C41AB15AA14A913A812
:1005CB00121202C450051208668017E4FFFE7D402C
:1005DB007C41AB15AA14A913A8121202C450031222
:1005EB00086D7F647E001207EB02053B7F017E00E6
:0305FB0002085E95
:0B084100438901C28CE4F58CF58A228B
:10068A00C2A0D2A0120890120890C2A030A1FDE424
:10069A00F58CF58AD28C20A1FDC28CAC8CE41203B5
:1006AA0047E4FBFA7980784312011EC004C005C0F2
:1006BA0006C007AC8AE4120347D003D002D001D0A7
:1006CA000012002D8F198E188D178C167F077E4207
:1006DA007DB27C39AB19AA18A917A81612011EE413
:1006EA00FBFAF97840120227E4FBFA79C878421239
:0206FA00011EDF
:0106FC0022DB
:100026000203E7E86480F8E933E83360110460F01E
:10003600ED33EC337009E8FCE9FDEAFEEBFF220440
:1000460060DED3EB9FEA9EE99DE8C2E78CF0C2F73B
:1000560095F0400CE8CCF8E9CDF9EACEFAEBCFFB07
:100066001203B285D0F05804700320D5B3E80470AB
:10007600075002B2D50203F192D5EC0460F7E4CC46
:10008600C0E0C398F8603B94186008400DD0E0FBD0
:100096000203C9E4FBFAC9FC8028E830E406E4C997
:1000A600FBE4CAFCE830E305E4C9CACBFCE8540724
:1000B6006010F8C3E913F9EA13FAEB13FBEC13FC2F
:1000C600D8F130F52FC3E49CFCEF9BFFEE9AFEEDD2
:1000D60099FDD0E0FBEF4E4D4C701222DB0302037C
:1000E600EEEC2CFCEF33FFEE33FEED33FDED30E7A7
:1000F600EB0203C9EF2BFFEE3AFEED39FDD0E0FB34
:1001060050130BBB00030203F1ED13FDEE13FEEFDC
:0801160013FFEC13FC0203C906
:10011E00EC4D6011E8497017ED33EC3304600DE4DB
:10012E00FCFFFEFD22E933E8330470F80203E71208
:10013E0003B258046009E4CC248150062850090209
:10014E0003F12840030203EEC0E0EB4A7044B9808D
:10015E0006D0E0FB0203DDEF4E701CBD8008EBFF06
:10016E00EAFEE9FD80EBE98DF0A4FEE5F002020760
:10017E00E9CDF9EAFEEBFFEF89F0A4FCE5F0CE89BC
:10018E00F0A42EFFE435F0CD89F0A42DFEE435F079
:10019E008067EF4E7005BD80D780C3EF8BF0A4ACA7
:1001AE00F0EE8BF0A42CFCE435F0F8EF8AF0A42CE2
:1001BE00E5F038FCE433CB8DF0A42CFCE5F03BF8F5
:1001CE00EE8AF0A42CFCE5F038F8E433CF89F0A4E5
:1001DE002CFCE5F038CF3400CE89F0A42FFFE5F0EB
:1001EE003EFEE433C98DF0A42EFEE5F039CD8AF043
:1001FE00A42FFFE5F03EFEE43DFD33D0E0FB5007BB
:10020E000BBB000F0203F1EC2CFCEF33FFEE33FEC1
:06021E00ED33FD0203C9EF
:100224000203F1EC5D046005E8590470030203E77E
:100234001203B2580460F6EC4860F2EC7004FDFE60
:10024400FF22C860DB2481C85009C39860025006AD
:100254000203EE9850CAF582E9294B4A7005AB8235
:100264000203DD75F0007C1A7880C3EF9BEE9AEDF3
:1002740099400DC3EF9BFFEE9AFEED99FDE842F025
:10028400DC23ACF0D0E0FFD0E0FED0E0FDAB822078
:10029400E7101BEB60BAEC2CFCEF33FFEE33FEED02
:1002A40033FD0203C9E803F830E705C0F075F00038
:1002B400EF2FFFEE33FEED33FD40B830E7C280AAE6
:1002C40074F8CC6480CCC86480C8F58204604FC3E1
:1002D400EB9FF5F0EA9E42F0E99D42F0E89C45F080
:1002E400603C501DE5825FFFE582D313CB5BCBF40A
:1002F4002B5582FB50280ABA002409B90020088033
:100304001DE5825BFBE582D313CF5FCFF4C3132FCC
:100314005582FF50090EBE00050DBD00010CC3EB54
:100324009FF5F0EA9E42F0E99D42F0E89C45F060BA
:0903340007CC4820E701B3EC22DC
:10033D0075F020800E75F010800575F0087D007E3B
:10034D00007F003392D530D503120451EC334010A9
:10035D00EF33FFEE33FEED33FDEC33FCD5F0ED2244
:0E036D00E5F0247EA2D513CC92E7CDCEFF2280
:10037B00EDD2E7CD33EC3392D524814006E4FFFE7A
:10038B00FDFC22FCE4CFCECDCC24E0501174FF80D9
:10039B00EDC3CC13CCCD13CDCE13CECF13CF047076
:0703AB00F030D5DE02045121
:1003B200E9D2E7C933E833F892D5EDD2E7CD33EC91
:0703C20033FC5002B2D5220A
:1003C900EC30E7100FBF000C0EBE00080DBD000495
:1003D9000BEB6014A2D5EB13FCED92E7FD2274FF41
:1003E900FCFDFEFF22E480F8A2D574FF13FC7D809A
:0303F900E480EFAE
:030000000205FEF8
:0C05FE00787FE4F6D8FD75811D020645EB
:1003FC00BC000BBE0029EF8DF084FFADF022E4CCE5
:10040C00F875F008EF2FFFEE33FEEC33FCEE9DECAD
:10041C00984005FCEE9DFE0FD5F0E9E4CEFD22EDF3
:10042C00F8F5F0EE8420D21CFEADF075F008EF2F3D
:10043C00FFED33FD4007985006D5F0F222C398FD2E
:05044C000FD5F0EA22CB
:0E045100C3E49FFFE49EFEE49DFDE49CFC22BC
:10060A00020003E493A3F8E493A34003F68001F203
:10061A0008DFF48029E493A3F85407240CC8C333F1
:10062A00C4540F4420C8834004F456800146F6DFC0
:10063A00E4800B0102040810204080900834E47E14
:10064A00019360BCA3FF543F30E509541FFEE493B5
:10065A00A360010ECF54C025E060A840B8E493A37C
:10066A00FAE493A3F8E493A3C8C582C8CAC583CAA7
:10067A00F0A3C8C582C8CAC583CADFE9DEE780BE5F
:0108400000B7
:00000001FF
